:100000000C942A000C9447000C9447000C94470071
:100010000C9447000C9447000C9447000C94500833
:100020000C9447000C9427080C9447000C9447004C
:100030000C9447000C9447000C9447000C94470024
:100040000C9447000C9447000C9447000C94470014
:100050000C94470011241FBECFE5D8E0DEBFCDBF12
:1000600011E0A0E6B0E0EAE0F3E102C005900D92F5
:10007000AE37B107D9F711E0AEE7B1E001C01D928C
:10008000AA38B107E1F70E9484070C9483090C9405
:100090000000813051F1813028F08230B9F1833095
:1000A00099F00895683009F446C0413009F45BC006
:1000B0002AB381E090E002C0880F991F6A95E2F7A9
:1000C000809582238ABB0895683089F1413009F414
:1000D0006BC021B381E090E002C0880F991F6A9540
:1000E000E2F78095822381BB0895683061F1413049
:1000F00009F444C027B381E090E002C0880F991F43
:100100006A95E2F78095822387BB08956830B9F03D
:10011000413009F43EC024B381E090E002C0880F72
:10012000991F6A95E2F78095822384BB0895413038
:1001300089F011BA0895413051F01ABA089541304A
:1001400079F014BA0895413041F017BA08958FEF4D
:100150008ABB08958FEF81BB08958FEF87BB089509
:100160008FEF84BB08952AB381E090E002C0880F2E
:10017000991F6A95E2F7282B2ABB089527B381E0DF
:1001800090E002C0880F991F6A95E2F7282B27BBE1
:10019000089524B381E090E002C0880F991F6A950A
:1001A000E2F7282B24BB089521B381E090E002C040
:1001B000880F991F6A95E2F7282B21BB089581309B
:1001C00051F1813028F08230B9F1833099F00895EF
:1001D000683009F446C0413009F45BC02BB381E0BC
:1001E00090E002C0880F991F6A95E2F780958223FC
:1001F0008BBB0895683089F1413009F46BC022B39C
:1002000081E090E002C0880F991F6A95E2F780951F
:10021000822382BB0895683061F1413009F444C003
:1002200028B381E090E002C0880F991F6A95E2F739
:100230008095822388BB08956830B9F0413009F475
:100240003EC025B381E090E002C0880F991F6A95F7
:10025000E2F78095822385BB0895413089F012BA78
:100260000895413051F01BBA0895413079F015BA24
:100270000895413041F018BA08958FEF8BBB08956F
:100280008FEF82BB08958FEF88BB08958FEF85BBFA
:1002900008952BB381E090E002C0880F991F6A9502
:1002A000E2F7282B2BBB089528B381E090E002C031
:1002B000880F991F6A95E2F7282B28BB089525B36C
:1002C00081E090E002C0880F991F6A95E2F7282B21
:1002D00025BB089522B381E090E002C0880F991FEA
:1002E0006A95E2F7282B22BB0895DF93CF930F92F4
:1002F000CDB7DEB7813041F1813048F0823041F135
:10030000833049F089810F90CF91DF910895683053
:1003100049F129B303C0683041F120B381E090E096
:10032000062E02C0880F991F0A94E2F730E082235C
:10033000932302C0959587956A95E2F78983898111
:100340000F90CF91DF910895683049F026B3E6CF42
:10035000683011F023B3E2CF83B38983D3CF86B360
:100360008983D0CF89B38983CDCF80B38983CACF26
:10037000FF920F931F93CF93DF9381E060E040E003
:100380000E94490081E061E040E00E94490081E074
:1003900062E040E00E94490081E063E040E00E94AA
:1003A000490081E064E040E00E94490081E065E0AE
:1003B00040E00E94490081E066E040E00E94490080
:1003C00081E067E040E00E94490000E0FF24C0E1D6
:1003D000D7E281E0602F41E00E94490081E0602F78
:1003E00040E00E94DF0010E0612F6C5F81E00E941E
:1003F0007501882391F01F5F1430B1F781E0602F01
:1004000040E00E944900CE010197F1F70F5F0430F0
:1004100008F44BC000E0FF24DCCF1F5F8F2D880F56
:10042000880F810F883079F1893078F08C3069F14C
:100430008D30A8F48A3029F18B3008F183E0DF9108
:10044000CF911F910F91FF900895843001F1853075
:1004500070F0863041F1873020F186E0F0CF8F30A8
:10046000F1F08031D1F08E3051F780E0E8CF82306A
:1004700091F0833070F4813011F787E0E0CF81E0B4
:10048000DECF82E0DCCF8AE2DACF8DE2D8CF85E220
:10049000D6CF89E0D4CF88E0D2CF8BE2D0CF8DE326
:1004A000CECF84E0CCCF85E0CACFF02E92CFDF92C2
:1004B000EF92FF920F931F93D82E82E066E041E007
:1004C0000E94DF00E0EDEE2EE7E0FE2EC70101976F
:1004D000F1F782E067E041E00E94DF00C701019789
:1004E000F1F70D2D10E0A80140715070559547951A
:1004F00055954795559547955595479580E064E006
:100500000E94DF00A801407250705595479555959F
:10051000479555954795559547955595479580E04D
:1005200065E00E94DF00A80140745070042E452F42
:10053000000C441F550B000C441F551F80E066E063
:100540000E94DF004D2D441F4427441F80E067E0D8
:100550000E94DF00C7010197F1F782E067E040E009
:100560000E94DF00C7010197F1F782E067E041E0F8
:100570000E94DF00C7010197F1F781E0D82280E0F7
:1005800064E04D2D0E94DF00A80142705070559527
:10059000479580E065E00E94DF00A801447050703C
:1005A000559547955595479580E066E00E94DF0098
:1005B0000870107015950795159507951595079571
:1005C00080E067E0402F0E94DF00C7010197F1F74C
:1005D00082E067E040E00E94DF00C7010197F1F789
:1005E0001F910F91FF90EF90DF900895CF93DF93CD
:1005F000EC018881882331F00E945702219688817E
:100600008823D1F7DF91CF9108950F931F93DF9344
:10061000CF93CDB7DEB760970FB6F894DEBF0FBEAD
:10062000CDBF8E010F5F1F4FB8014AE050E00E941E
:100630003E09C8010E94F60260960FB6F894DEBF2C
:100640000FBECDBFCF91DF911F910F910895DF9223
:10065000EF92FF920F931F93D82E82E066E040E066
:100660000E94DF0030EDE32E37E0F32EC701019743
:10067000F1F782E067E041E00E94DF00C7010197E7
:10068000F1F70D2D10E0A801407150705595479578
:1006900055954795559547955595479580E064E064
:1006A0000E94DF00A80140725070559547955595FE
:1006B000479555954795559547955595479580E0AC
:1006C00065E00E94DF00A80140745070042E452FA1
:1006D000000C441F550B000C441F551F80E066E0C2
:1006E0000E94DF004D2D441F4427441F80E067E037
:1006F0000E94DF00C7010197F1F782E067E040E068
:100700000E94DF00C7010197F1F782E067E041E056
:100710000E94DF00C7010197F1F781E0D82280E055
:1007200064E04D2D0E94DF00A80142705070559585
:10073000479580E065E00E94DF00A801447050709A
:10074000559547955595479580E066E00E94DF00F6
:1007500008701070159507951595079515950795CF
:1007600080E067E0402F0E94DF00C7010197F1F7AA
:1007700082E067E040E00E94DF00C7010197F1F7E7
:100780001F910F91FF90EF90DF900895DF93CF932B
:100790000F92CDB7DEB78130D9F0813048F469834C
:1007A000898180680E9427030F90CF91DF9108957F
:1007B000823021F08330A1F7605BF1CF605F698305
:1007C000898180680E9427030F90CF91DF9108955F
:1007D000605C6983898180680E9427030F90CF91B4
:1007E000DF9108950F931F938A010E94C603C801E9
:1007F0000E94F6021F910F91089581E00E94270345
:10080000089582E066E041E00E94490082E067E0EE
:1008100041E00E94490080E49CE90197F1F780E003
:1008200064E041E00E94490080E065E041E00E9410
:10083000490080E066E041E00E94490080E067E016
:1008400041E00E94490083E30E94270382E30E9463
:10085000270388E20E9427038CE00E94270381E09F
:100860000E94270308958091820190918301A091B5
:100870008401B09185010196A11DB11D8093820173
:1008800090938301A0938401B09385010297A10501
:10089000B10509F0089580917E0190917F01A091AA
:1008A0008001B09181010196A11DB11D80937E014F
:1008B00090937F01A0938001B093810110928201F7
:1008C0001092830110928401109285010895DF93A4
:1008D000CF930F92CDB7DEB70E94FD0380E060E0BA
:1008E00040E650E00E94F20381E060E041E750E022
:1008F0000E94F2030E94B801898389818B3269F0DA
:1009000089818D3229F080E00F90CF91DF91089599
:1009100082E00F90CF91DF91089581E00F90CF9109
:10092000DF9108950F931F93DF93CF9300D0CDB73E
:10093000DEB70E94FD0328E833E148EC50E0CA012D
:100940000197F1F721503040D1F780E060E042E8B4
:1009500050E00E94F20381E060E043E950E00E9431
:10096000F20381E06BE00E94C6031092860108EC5E
:1009700010E00E94B80189838DE990E00E94F602A0
:1009800089810E94F80820E43FE1C8010197F1F74E
:1009900021503040D1F7809186018F5F809386018E
:1009A000853038F30E94FD0328E833E148EC50E03D
:1009B000CA010197F1F721503040D1F780E060E0A3
:1009C0004FE950E00E94F20381E060E040EB50E02C
:1009D0000E94F2030E94B8010E94FD0328E833E15F
:1009E00048EC50E0CA010197F1F721503040D1F7AF
:1009F00080E060E04DEB50E00E94F20381E060E0B7
:100A000043E950E00E94F20381E06BE00E94C603DC
:100A10001092860108EC10E00E94B80189838DE9EC
:100A200090E00E94F60289810E94F80820E43FE1EC
:100A3000C8010197F1F721503040D1F7809186012C
:100A40008F5F80938601853038F30E94FD0328E88C
:100A500033E148EC50E0CA010197F1F721503040F2
:100A6000D1F780E060E04FE950E00E94F20381E0BE
:100A700060E040EB50E00E94F2030E94B8010E9447
:100A8000FC088A838A810F900F90CF91DF911F918C
:100A90000F9108950E94790888E00E94F8080E944A
:100AA000FD0380E060E04EEC50E00E94F20381E044
:100AB00060E00E94C60380917E0190917F01A09129
:100AC0008001B0918101CD97A105B105D0F481E0FD
:100AD00060E00E94C60380917E0190917F010E9498
:100AE000050389ED90E00E94F60280917E019091CD
:100AF0007F01A0918001B0918101CD97A105B10541
:100B000030F30E94FD0310927E0110927F0110923B
:100B10008001109281011092820110928301109243
:100B20008401109285010E94B20810927401089508
:100B30000F931F93DF93CF9300D0CDB7DEB70E9402
:100B4000FD0328E833E148EC50E0CA010197F1F7D2
:100B500021503040D1F780E060E04CED50E00E9441
:100B6000F20381E060E04DEE50E00E94F20381E08C
:100B70006BE00E94C6031092860108EC10E00E9410
:100B8000B80189838DE990E00E94F60289810E9474
:100B9000F80820E43FE1C8010197F1F72150304007
:100BA000D1F7809186018F5F80938601853038F37D
:100BB0000E94FD0328E833E148EC50E0CA010197A8
:100BC000F1F721503040D1F780E060E04FE950E08C
:100BD0000E94F20381E060E040EB50E00E94F203EB
:100BE0000E94B8010E94FC088A838A81813009F43E
:100BF0003BC080917601833041F188E00E94F80883
:100C0000809176018F5F809376010E94FD0380E0E2
:100C100060E047EF50E00E94F20381E060E044E0D2
:100C200051E00E94F20328E833E148EC50E0CA01A9
:100C30000197F1F721503040D1F780E00F900F90ED
:100C4000CF91DF911F910F9108958EE691E00E9460
:100C50004A0581E08093760182E00F900F90CF915A
:100C6000DF911F910F910895809376018A81E6CFDD
:100C70000E94790888E00E94F8080E94FD0380E045
:100C800060E04FE051E00E94F20381E060E00E94EA
:100C9000C60380917E0190917F01A0918001B09167
:100CA00081014097A105B105D0F481E060E00E9488
:100CB000C60380917E0190917F010E94050389ED1A
:100CC00090E00E94F60280917E0190917F01A091B8
:100CD0008001B09181014097A105B10530F30E94D8
:100CE000FD0380E060E040E251E00E94F203809169
:100CF0007E0190917F01A0918001B0918101439785
:100D0000A105B105D0F481E060E00E94C6038091A6
:100D10007E0190917F010E94050389ED90E00E9481
:100D2000F60280917E0190917F01A0918001B091A7
:100D300081014397A105B10530F30E94FD0380E0D6
:100D400060E048E251E00E94F20380917E019091C0
:100D50007F01A0918001B09181018297A105B10529
:100D6000D0F481E060E00E94C60380917E01909102
:100D70007F010E94050389ED90E00E94F6028091B8
:100D80007E0190917F01A0918001B09181018297B5
:100D9000A105B10530F30E94FD0310927E0110926F
:100DA0007F011092800110928101109282011092B5
:100DB000830110928401109285010E94B208089567
:100DC0000F931F93DF93CF9300D0CDB7DEB70E9470
:100DD000FD0328E833E148EC50E0CA010197F1F740
:100DE00021503040D1F780E060E04CED50E00E94AF
:100DF000F20381E060E04DEE50E00E94F20381E0FA
:100E00006BE00E94C6031092860108EC10E00E947D
:100E1000B80189838DE990E00E94F60289810E94E1
:100E2000F80820E43FE1C8010197F1F72150304074
:100E3000D1F7809186018F5F80938601853038F3EA
:100E40000E94FD0328E833E148EC50E0CA01019715
:100E5000F1F721503040D1F780E060E04FE950E0F9
:100E60000E94F20381E060E040EB50E00E94F20358
:100E70000E94B8010E94FC088A831A81113009F48B
:100E80003BC080917501833041F188E00E94F808F1
:100E9000809175018F5F809375010E94FD0380E052
:100EA00060E047EF50E00E94F20381E060E049E338
:100EB00051E00E94F20328E833E148EC50E0CA0117
:100EC0000197F1F721503040D1F780E00F900F905B
:100ED000CF91DF911F910F9108958EE691E00E94CE
:100EE0004A0581E08093750182E00F900F90CF91C9
:100EF000DF911F910F9108958EE691E00E943806D0
:100F0000109375018A81E2CFFF920F931F93DF93B5
:100F1000CF93CDB7DEB72C970FB6F894DEBF0FBED8
:100F2000CDBF83E394E00E94BA088FB780688FBF7B
:100F3000CE010696DC01E7E7F1E027E001900D9293
:100F40002150E1F70E94BF080E94010491E008ECE3
:100F500010E0FF24F3949A838A81813021F18091FB
:100F60007401813009F45AC0F092740103C080E02A
:100F70000E94F8080E9467048D838D818823B9F34D
:100F80008D81813009F440C08D81823009F455C0D3
:100F90008B818983898190E08130E9F691E09A83A1
:100FA0008A818130E1F60E94FD0383E491E00E9492
:100FB000F60228E833E1C8010197F1F721503040EB
:100FC000D1F70E9492048C838C81882341F60E9481
:100FD000FD038BE491E00E94F60228E833E1C801AA
:100FE0000197F1F721503040D1F70E94FD0389E5C8
:100FF00091E00E94F60228E833E1C8010197F1F779
:1010000021503040D1F7DDCF83E00E94F8080E94E4
:10101000E0068B838B818823D1F3BACF0E94FD0336
:1010200084E691E00E94F60228E833E1C8010197C6
:10103000F1F721503040D1F797CF84E00E94F808B3
:101040000E9498058B838B818823D1F3A1CF1F92B7
:101050000F920FB60F9211242F933F934F935F93EC
:101060006F937F938F939F93AF93BF93EF93FF9370
:10107000E0918701F0918801309709F00995FF917F
:10108000EF91BF91AF919F918F917F916F915F9100
:101090004F913F912F910F900FBE0F901F90189579
:1010A0001F920F920FB60F9211242F933F934F93DD
:1010B0005F936F937F938F939F93AF93BF93EF93C0
:1010C000FF93E0918701F0918801309709F009952D
:1010D000FF91EF91BF91AF919F918F917F916F9110
:1010E0005F914F913F912F910F900FBE0F901F90E6
:1010F0001895FC014581842F837088608FBD842FF3
:1011000090E09C0124703070359527953595279592
:10111000220F331F220F331F220F331F887090704E
:1011200095958795959587959595879582959295AF
:10113000907F9827807F9827282B8481282B2EBD8D
:10114000808191819DBD8CBD443021F089B7846040
:1011500089BF0895828193819BBD8ABD89B78061D3
:1011600089BF08958EB58EBD1DBC1CBC89B78B7E12
:1011700089BF089590938801809387010895FC01A9
:1011800082E08BB988E18AB980E880BD90B5818121
:10119000829580739F7C892B80BD90B58081880F5C
:1011A0008670997F892B80BD90B58281880F880FCA
:1011B000880F8870977F892B80BD2381348145817A
:1011C0005681220F331F441F551F220F331F441F08
:1011D000551F220F331F441F551F60E072E18AE73D
:1011E00090E00E941C092150304030BD29B908957B
:1011F0005D9BFECF8CB908955F9BFECF8CB10895A7
:10120000FC018081882339F05D9BFECF8CB931963B
:1012100080818823C9F70895FC015F9BFECF8CB1C4
:101220008083833239F031965F9BFECF8CB180830F
:101230008332C9F710820895A1E21A2EAA1BBB1BA4
:10124000FD010DC0AA1FBB1FEE1FFF1FA217B30792
:10125000E407F50720F0A21BB30BE40BF50B661FA8
:10126000771F881F991F1A9469F76095709580956C
:1012700090959B01AC01BD01CF010895FB019F0139
:10128000E8944230C4F04532B4F44A3029F497FB74
:101290001EF4909581959F4F642F77270E946F09C8
:1012A000805D8A330CF0895D8193CB010097A1F7B3
:1012B00016F45DE251931082C9010C945F09DC01C0
:1012C000FC01672F71917723E1F7329704C07C917D
:1012D0006D9370836291AE17BF07C8F30895AA1B80
:1012E000BB1B51E107C0AA1FBB1FA617B70710F011
:1012F000A61BB70B881F991F5A95A9F78095909543
:0A130000BC01CD010895F894FFCF61
:10130A002B203A204F70656E20446F6F7220202088
:10131A00002D203A204368616E676520506173731F
:10132A002000506C6561736520456E746572207487
:10133A0068650050617373776F72643A002A0050CF
:10134A0072657373206F6E20616E79206B65790008
:10135A00746F20636F6E74696E75652E00506C7AB7
:10136A002052652D456E7465722074686500455279
:10137A00524F525F5041535300202000506C656118
:10138A00736520656E746572207468650070617398
:10139A0073776F72643A004E6F74207468652073B5
:1013AA00616D650054727920416761696E2000445D
:1013BA006F6F72277320556E6C6F636B696E67006F
:1013CA0053746F7070656400446F6F722773206C7A
:1013DA006F636B696E6720200054727920416761E0
:1013EA00696E005F48454C4C4F5F004E6F74207425
:1013FA0068652073616D652E0054727920416761BA
:10140A00696E2E0041636365707465642E00000086
:0E141A00000003000101010302008025000014
:00000001FF
