:100000000C942A000C9447000C9447000C94470071
:100010000C9447000C9447000C9447000C94880DF6
:100020000C9447000C945F0D0C9447000C9447000F
:100030000C9447000C9447000C9447000C94470024
:100040000C9447000C9447000C9447000C94470014
:100050000C94470011241FBECFE5D8E0DEBFCDBF12
:1000600011E0A0E6B0E0E8EEFDE102C005900D92DF
:10007000AC37B107D9F711E0ACE7B1E001C01D9290
:10008000AA38B107E1F70E94FC0C0C94F20E0C9414
:100090000000EF92FF920F931F937B018C0120E0F1
:1000A00030E040E05FE40E94190388238CF0C8012F
:1000B000B70120E030E040E05FE40E94C1010E940F
:1000C000A7039B01AC01205030404040504806C07F
:1000D000C801B7010E94A7039B01AC01B901CA0185
:1000E0001F910F91FF90EF900895A0E0B0E0EBE733
:1000F000F0E00C94760EDC012B01FA019C91923019
:1001000008F439C1EB018881823008F433C194309E
:1001100069F4843009F02FC111969C91119789815F
:10012000981709F428C1A3E6B0E025C1843009F48A
:1001300021C18230A9F4923009F01DC19A01AD01AC
:1001400088E0EA010990AE01E90109929E0181501F
:10015000C1F7E201898111969C918923818308C1AD
:10016000923009F407C112962D903C901397EB0141
:100170008A819B811496AD90BD90CD90DC901797AD
:10018000EC80FD800E811F819101281B390BB90184
:1001900037FF04C066277727621B730B6032710537
:1001A0000CF061C0121613066CF537014801062EDB
:1001B00004C096948794779467940A94D2F721E0C8
:1001C00030E040E050E004C0220F331F441F551FB1
:1001D0006A95D2F721503040404050402E213F21B7
:1001E00040235123211531054105510521F021E01E
:1001F00030E040E050E079018A01E628F72808293C
:1002000019293CC0232BD1F1260E371E350146019A
:10021000062E04C096948794779467940A94D2F734
:1002200021E030E040E050E004C0220F331F441FC3
:10023000551F6A95D2F721503040404050402A2146
:100240003B214C215D21211531054105510521F04E
:1002500021E030E040E050E059016A01A628B728CB
:10026000C828D9280BC0821593052CF01C01AA249C
:10027000BB24650103C0EE24FF24870111969C91E5
:10028000D20111968C91981709F445C0992339F041
:10029000A80197012A193B094C095D0906C0A6016E
:1002A00095012E193F09400B510B57FD08C01182D3
:1002B0003382228224833583468357831DC081E0A5
:1002C00081833382228288279927DC01821B930B4A
:1002D000A40BB50B84839583A683B7830DC0220F2F
:1002E000331F441F551F24833583468357838281E0
:1002F000938101979383828324813581468157813D
:10030000DA01C9010197A109B1098F5F9F4FAF4F72
:10031000BF4328F30BC0918333822282EA0CFB1C7B
:100320000C1D1D1DE482F5820683178383E0808304
:10033000248135814681578157FF1AC0C901AA27F8
:1003400097FDA095BA2F81709070A070B0705695EF
:10035000479537952795822B932BA42BB52B848318
:100360009583A683B7838281938101969383828349
:10037000DF0101C0D201CD01CDB7DEB7E2E10C94BF
:10038000920EA0E2B0E0E7ECF1E00C94820E6983FB
:100390007A838B839C832D833E834F835887E9E048
:1003A000EE2EF12CEC0EFD1ECE010196B7010E943F
:1003B0001F058E010F5E1F4FCE010596B8010E94EA
:1003C0001F058A8991E089278A8BC701B801AE0190
:1003D000475E5F4F0E9475000E944A04A096E6E0C7
:1003E0000C949E0EA0E2B0E0E8EFF1E00C94820ED7
:1003F00069837A838B839C832D833E834F835887C5
:10040000F9E0EF2EF12CEC0EFD1ECE010196B701A6
:100410000E941F058E010F5E1F4FCE010596B80189
:100420000E941F05C701B801AE01475E5F4F0E94E1
:1004300075000E944A04A096E6E00C949E0EA0E28D
:10044000B0E0E5E2F2E00C94760E69837A838B8368
:100450009C832D833E834F835887CE010196BE0136
:10046000675F7F4F0E941F05CE010596BE016F5E3C
:100470007F4F0E941F059985923088F089898230CC
:10048000C8F0943019F4823051F404C0843029F457
:10049000923081F483E690E0C6C0923049F420E0C7
:1004A0009A858A89981321E02A87CE010996BBC0D4
:1004B000823049F420E09A858A89981321E02A8BBA
:1004C000CE014196B0C02D843E844F8458886D88FB
:1004D0007E888F88988CEE24FF248701AA24BB2471
:1004E000650140E050E060E070E0E0E0F0E0C10174
:1004F00081709070892BE9F0E60CF71C081D191D1E
:100500009A01AB012A0D3B1D4C1D5D1D80E090E062
:10051000A0E0B0E0E614F7040805190520F481E036
:1005200090E0A0E0B0E0BA01A901480F591F6A1F8E
:100530007B1FAA0CBB1CCC1CDD1C97FE08C081E0F5
:1005400090E0A0E0B0E0A82AB92ACA2ADB2A3196B6
:10055000E032F10549F0660C771C881C991C569412
:10056000479437942794C3CFFA85EA892B893C892D
:100570008B859C85280F391F2E5F3F4F17C0CA01FE
:1005800081709070892B61F016950795F794E79428
:1005900080E090E0A0E0B0E8E82AF92A0A2B1B2BC3
:1005A00076956795579547952F5F3F4F77FDE7CF36
:1005B0000CC0440F551F661F771F17FD4160EE0CDE
:1005C000FF1C001F111F21503040403090E05907A0
:1005D00090E0690790E4790760F32B8F3C8FDB0193
:1005E000CA018F779070A070B07080349105A1051A
:1005F000B10561F447FD0AC0E114F10401051105DC
:1006000029F0405C5F4F6F4F7F4F40781A8EFE1786
:1006100011F081E08A8F4D8F5E8F6F8F78A383E01A
:10062000898FCE0149960E944A04A096E2E10C947B
:10063000920EA8E1B0E0EFE1F3E00C94820E698342
:100640007A838B839C832D833E834F83588789E0F5
:10065000E82EF12CEC0EFD1ECE010196B7010E9492
:100660001F058E010F5E1F4FCE010596B8010E9437
:100670001F058985823040F08989823028F0C701C2
:10068000B8010E94970501C08FEF6896E6E00C94D0
:100690009E0EA8E0B0E0EFE4F3E00C947F0E9B0127
:1006A000AC0183E08983DA01C9018827B7FD83950E
:1006B0009927AA27BB27B82E2115310541055105D9
:1006C00019F482E089833AC08823A9F0203080E0C1
:1006D000380780E0480780E8580729F460E070E0B8
:1006E00080E09FEC30C0EE24FF248701E21AF30A79
:1006F000040B150B02C079018A018EE1C82ED12CA2
:10070000DC82CB82ED82FE820F831887C801B7019D
:100710000E94FB0301971816190684F4082E04C0E2
:10072000EE0CFF1C001F111F0A94D2F7ED82FE820F
:100730000F831887C81AD90ADC82CB82BA82CE010D
:1007400001960E944A042896E9E00C949B0EACE0C6
:10075000B0E0EDEAF3E00C94860E69837A838B8334
:100760009C83CE010196BE016B5F7F4F0E941F05E7
:100770008D81823061F1823050F1843021F48E819C
:10078000882351F12EC02F81388537FD20C06E811E
:100790002F3131051CF06623F9F023C08EE190E083
:1007A000821B930B29853A854B855C8504C0569541
:1007B0004795379527958A95D2F76623B1F05095DE
:1007C0004095309521953F4F4F4F5F4F0EC020E031
:1007D00030E040E050E009C02FEF3FEF4FEF5FE720
:1007E00004C020E030E040E050E8B901CA012C9696
:1007F000E2E00C94A20EEF92FF920F931F937B0105
:100800008C0180E0E81680E0F80681E0080780E0CF
:10081000180788F48FEFE816F1040105110531F08F
:1008200028F088E090E0A0E0B0E017C080E090E021
:10083000A0E0B0E012C080E0E81680E0F80680E0BA
:10084000080781E0180728F088E190E0A0E0B0E018
:1008500004C080E190E0A0E0B0E020E230E040E0C1
:1008600050E0281B390B4A0B5B0B04C0169507950B
:10087000F794E7948A95D2F7F701E559FF4F808105
:10088000281B310941095109C9011F910F91FF909E
:10089000EF900895DF92EF92FF920F931F93FC0168
:1008A000E480F58006811781D1808081823048F410
:1008B00080E090E0A0E1B0E0E82AF92A0A2B1B2BA7
:1008C000A5C0843009F49FC0823021F4EE24FF24B7
:1008D000870105C0E114F1040105110519F4E0E0F8
:1008E000F0E096C0628173819FEF623879070CF067
:1008F0005BC022E83FEF261B370B2A3131052CF075
:1009000020E030E040E050E02AC0B801A701022E0C
:1009100004C076956795579547950A94D2F781E07C
:1009200090E0A0E0B0E004C0880F991FAA1FBB1F91
:100930002A95D2F70197A109B1098E219F21A02301
:10094000B1230097A105B10521F081E090E0A0E07E
:10095000B0E09A01AB01282B392B4A2B5B2BDA0133
:10096000C9018F779070A070B07080349105A10597
:10097000B10539F427FF09C0205C3F4F4F4F5F4F4F
:1009800004C0215C3F4F4F4F5F4FE0E0F0E020306C
:10099000A0E03A07A0E04A07A0E45A0710F0E1E01F
:1009A000F0E079018A0127C06038710564F5FB0128
:1009B000E158FF4FD801C7018F779070A070B070D9
:1009C00080349105A105B10539F4E7FE0DC080E43E
:1009D00090E0A0E0B0E004C08FE390E0A0E0B0E0E1
:1009E000E80EF91E0A1F1B1F17FF05C01695079575
:1009F000F794E794319687E016950795F794E79476
:100A00008A95D1F705C0EE24FF248701EFEFF0E0CF
:100A10006E2F679566276795902F9F77D794DD2473
:100A2000D7948E2F8695492F462B582F5D29B701D5
:100A3000CA011F910F91FF90EF90DF900895FC0184
:100A4000DB01408151812281622F6F7770E0221F8C
:100A50002227221F9381892F880F822B282F30E095
:100A6000991F9927991F11969C931197211531056C
:100A7000A9F5411551056105710511F482E037C0F2
:100A800082E89FEF13969C938E9312979A01AB0185
:100A900067E0220F331F441F551F6A95D1F783E08B
:100AA0008C930DC0220F331F441F551F12968D913A
:100AB0009C911397019713969C938E9312972030D5
:100AC00080E0380780E0480780E4580758F3149620
:100AD0002D933D934D935C93179708952F3F3105C8
:100AE00079F4411551056105710519F484E08C9381
:100AF000089564FF03C081E08C9312C01C9210C063
:100B00002F57304013963C932E93129783E08C938B
:100B100087E0440F551F661F771F8A95D1F77064D1
:100B200014964D935D936D937C93179708951F933F
:100B3000DC01FB019C91923008F447C08081823037
:100B400008F443C0943051F411961C91843099F507
:100B50008181682F70E0611B71093FC0843021F0F2
:100B6000923031F48230B9F18181882389F12DC02E
:100B700011961C9111978230F1F081811817D9F4E8
:100B800012962D913C91139782819381821793073E
:100B900094F028173907BCF014968D919D910D9013
:100BA000BC91A02D248135814681578128173907B2
:100BB0004A075B0718F4112341F00AC08217930714
:100BC000A407B50740F4112319F061E070E005C0F7
:100BD0006FEF7FEF02C060E070E0CB011F910895DE
:100BE00080917C0160917D0140E00E94B2070895F0
:100BF00080917C0160917D0141E00E94B2070895DF
:100C00000F931F93182F062F80937C0160937D0113
:100C100041E00E941C07812F602F40E00E94B20734
:100C20001F910F91089580E061E040E00E94B207BB
:100C300080E062E040E00E94B207089580E061E059
:100C400040E00E94B20780E062E041E00E94B2070B
:100C5000089580E061E041E00E94B20780E062E038
:100C600040E00E94B207089580E061E041E00E9408
:100C70001C0780E061E040E00E94B20780E062E093
:100C800041E00E941C0780E062E040E00E94B20761
:100C90000895EF92FF920F931F93E82E81E063E097
:100CA00041E00E941C0712BEFF240027F7FC0095BC
:100CB000102FC801B7010E94490323E333E343E245
:100CC00050E40E941F020E9449006CBF8AE683BF65
:100CD0001F910F91FF90EF9008951F93162F813071
:100CE000F9F0813060F480E061E040E00E94B207FA
:100CF00080E062E040E00E94B2071F9108958230D8
:100D000091F780E061E040E00E94B20780E062E09D
:100D100041E00E94B207812F0E9449061F91089569
:100D200080E061E041E00E94B20780E062E040E0E4
:100D30000E94B207812F0E9449061F910895EF92E9
:100D4000FF920F931F93DF93CF930F92CDB7DEB730
:100D50007C018B010E9492080E94B008883049F003
:100D600080E00F90CF91DF911F910F91FF90EF9056
:100D70000895C701880F892F881F990B9195282FF7
:100D80002E702983822F806A0E949B080E94B008DF
:100D9000883131F78E2D0E949B080E94B00888325E
:100DA000F9F60E9492080E94B0088031C9F6898144
:100DB000816A0E949B080E94B008803489F60E94D4
:100DC000A908F80180830E94B008883549F60E947E
:100DD000980881E0C6CF1F93CF93DF93EC01162FC5
:100DE0000E9492080E94B008883029F080E0DF91CC
:100DF000CF911F910895CE0180709770880F892F31
:100E0000881F990B9195806A0E949B080E94B008E8
:100E1000883161F78C2F0E949B080E94B0088832AD
:100E200029F7812F0E949B080E94B0088832F1F6B2
:100E30000E94980881E0DBCF813051F1813028F0A9
:100E40008230B9F1833099F00895683009F446C0D2
:100E5000413009F45BC02AB381E090E002C0880F02
:100E6000991F6A95E2F7809582238ABB08956830BE
:100E700089F1413009F46BC021B381E090E002C0F8
:100E8000880F991F6A95E2F78095822381BB0895A8
:100E9000683061F1413009F444C027B381E090E04B
:100EA00002C0880F991F6A95E2F78095822387BB5D
:100EB00008956830B9F0413009F43EC024B381E0B0
:100EC00090E002C0880F991F6A95E2F7809582230F
:100ED00084BB0895413089F011BA0895413051F032
:100EE0001ABA0895413079F014BA0895413041F0AA
:100EF00017BA08958FEF8ABB08958FEF81BB0895CD
:100F00008FEF87BB08958FEF84BB08952AB381E0EC
:100F100090E002C0880F991F6A95E2F7282B2ABB40
:100F2000089527B381E090E002C0880F991F6A9569
:100F3000E2F7282B27BB089524B381E090E002C09C
:100F4000880F991F6A95E2F7282B24BB089521B3D7
:100F500081E090E002C0880F991F6A95E2F7282B84
:100F600021BB0895813051F1813028F08230B9F1F0
:100F7000833099F00895683009F446C0413009F48F
:100F80005BC02BB381E090E002C0880F991F6A9587
:100F9000E2F7809582238BBB0895683089F1413058
:100FA00009F46BC022B381E090E002C0880F991F62
:100FB0006A95E2F78095822382BB0895683061F1DB
:100FC000413009F444C028B381E090E002C0880FAA
:100FD000991F6A95E2F78095822388BB089568304F
:100FE000B9F0413009F43EC025B381E090E002C081
:100FF000880F991F6A95E2F78095822385BB089533
:10100000413089F012BA0895413051F01BBA089569
:10101000413079F015BA0895413041F018BA089579
:101020008FEF8BBB08958FEF82BB08958FEF88BB46
:1010300008958FEF85BB08952BB381E090E002C047
:10104000880F991F6A95E2F7282B2BBB089528B3C8
:1010500081E090E002C0880F991F6A95E2F7282B83
:1010600028BB089525B381E090E002C0880F991F46
:101070006A95E2F7282B25BB089522B381E090E022
:1010800002C0880F991F6A95E2F7282B22BB0895AA
:10109000DF93CF930F92CDB7DEB7813041F181302E
:1010A00048F0823041F1833049F089810F90CF912F
:1010B000DF910895683049F129B303C0683041F1E8
:1010C00020B381E090E0062E02C0880F991F0A9499
:1010D000E2F730E08223932302C0959587956A95C5
:1010E000E2F7898389810F90CF91DF91089568306D
:1010F00049F026B3E6CF683011F023B3E2CF83B3D3
:101100008983D3CF86B38983D0CF89B38983CDCF69
:1011100080B38983CACF82E080B911B882B984E0F4
:1011200086BF089584EA86BF06B607FEFDCF089500
:1011300084E986BF089583B984E886BF06B607FEB2
:10114000FDCF089584EC86BF06B607FEFDCF83B1C0
:10115000089584E886BF06B607FEFDCF83B10895E3
:1011600081B1887F0895DF92EF92FF920F931F93D2
:10117000D82E82E066E041E00E94B207E0EDEE2E5C
:10118000E7E0FE2EC7010197F1F782E067E041E05A
:101190000E94B207C7010197F1F70D2D10E0A801D9
:1011A000407150705595479555954795559547957C
:1011B0005595479580E064E00E94B207A80140720F
:1011C0005070559547955595479555954795559523
:1011D00047955595479580E065E00E94B207A801C4
:1011E00040745070042E452F000C441F550B000C0A
:1011F000441F551F80E066E00E94B2074D2D441F3A
:101200004427441F80E067E00E94B207C7010197AE
:10121000F1F782E067E040E00E94B207C701019762
:10122000F1F782E067E041E00E94B207C701019751
:10123000F1F781E0D82280E064E04D2D0E94B207F2
:10124000A801427050705595479580E065E00E9476
:10125000B207A8014470507055954795559547952C
:1012600080E066E00E94B20708701070159507953F
:10127000159507951595079580E067E0402F0E942A
:10128000B207C7010197F1F782E067E040E00E94F2
:10129000B207C7010197F1F71F910F91FF90EF90EF
:1012A000DF900895CF93DF93EC018881882331F09C
:1012B0000E94B308219688818823D1F7DF91CF91CE
:1012C00008950F931F93DF93CF93CDB7DEB7609749
:1012D0000FB6F894DEBF0FBECDBF8E010F5F1F4F5C
:1012E000B8014AE050E00E94AD0EC8010E945209C8
:1012F00060960FB6F894DEBF0FBECDBFCF91DF91E1
:101300001F910F910895DF92EF92FF920F931F9319
:10131000D82E82E066E040E00E94B20730EDE32E76
:1013200037E0F32EC7010197F1F782E067E041E073
:101330000E94B207C7010197F1F70D2D10E0A80137
:1013400040715070559547955595479555954795DA
:101350005595479580E064E00E94B207A80140726D
:101360005070559547955595479555954795559581
:1013700047955595479580E065E00E94B207A80122
:1013800040745070042E452F000C441F550B000C68
:10139000441F551F80E066E00E94B2074D2D441F98
:1013A0004427441F80E067E00E94B207C70101970D
:1013B000F1F782E067E040E00E94B207C7010197C1
:1013C000F1F782E067E041E00E94B207C7010197B0
:1013D000F1F781E0D82280E064E04D2D0E94B20751
:1013E000A801427050705595479580E065E00E94D5
:1013F000B207A8014470507055954795559547958B
:1014000080E066E00E94B20708701070159507959D
:10141000159507951595079580E067E0402F0E9488
:10142000B207C7010197F1F782E067E040E00E9450
:10143000B207C7010197F1F71F910F91FF90EF904D
:10144000DF900895DF93CF930F92CDB7DEB7813051
:10145000D9F0813048F46983898180680E948309CA
:101460000F90CF91DF910895823021F08330A1F762
:10147000605BF1CF605F6983898180680E94830926
:101480000F90CF91DF910895605C698389818068B6
:101490000E9483090F90CF91DF9108950F931F93BE
:1014A0008A010E94220AC8010E9452091F910F91CD
:1014B000089581E00E948309089582E066E041E09A
:1014C0000E941C0782E067E041E00E941C0780E464
:1014D0009CE90197F1F780E064E041E00E941C077D
:1014E00080E065E041E00E941C0780E066E041E0AA
:1014F0000E941C0780E067E041E00E941C0783E334
:101500000E94830982E30E94830988E20E94830982
:101510008CE00E94830981E00E94830908958091F4
:10152000820190918301A0918401B091850101967F
:10153000A11DB11D8093820190938301A09384012A
:10154000B09385010297A105B10509F00895809136
:101550007E0190917F01A0918001B091810101965F
:10156000A11DB11D80937E0190937F01A093800106
:10157000B093810110928201109283011092840134
:10158000109285010895CF92DF92EF92FF920F9310
:101590001F93DF93CF93CDB7DEB72B970FB6F89499
:1015A000DEBF0FBECDBF1092860100E092E0E92EB3
:1015B000F12CEC0EFD1E10E00E94340E0E0D1F1DCE
:1015C000F8018083009186010F5F0093860105304A
:1015D00090F31092860100E087E0C82ED12CCC0E4B
:1015E000DD1E10E00E94340E0C0D1D1DF8018083DD
:1015F000009186010F5F00938601053090F31092F1
:10160000860140E020E030E0F701E20FF31F908117
:10161000F601E20FF31F80819817A1F5422F4F5F6B
:101620002F5F3F4F2530310579F71092860180E01A
:1016300000E41CE990E0F701E80FF91F60818F5E7C
:101640009C4F0E94EB06C8010197F1F7809186013B
:101650008F5F80938601853068F381E0898389817B
:101660000E94300E89812B960FB6F894DEBF0FBE14
:10167000CDBFCF91DF911F910F91FF90EF90DF9041
:10168000CF90089540938601198289810E94300E7F
:101690008981E9CFCF93DF93EC010E94340E88302B
:1016A000E1F7CE010E94B10D0E94F80580917E0104
:1016B00090917F01A0918001B0918101CD97A1050A
:1016C000B105D0F480E060E00E94220A80917E01A2
:1016D00090917F010E94610980E690E00E9452098A
:1016E00080917E0190917F01A0918001B091810154
:1016F000CD97A105B10530F30E94590A0E94F0056B
:101700000E94EA0D10927E0110927F0110928001DA
:101710001092810110927301DF91CF910895EF92A1
:10172000FF920F931F93DF93CF9300D000D000D090
:10173000CDB7DEB719821092860100E022E0E22EDA
:10174000F12CEC0EFD1E10E00E94340E0E0D1F1D3C
:10175000F8018083009186010F5F009386010530B8
:1017600090F31092860180E08E010F5F1F4F90E092
:101770008F5E9C4FB8010E949F0620918601F70161
:10178000E20FF11D90818981981709F0AFC0822F77
:101790008F5F80938601853050F381E00E94300E88
:1017A0000E94340E8830E1F78BE691E00E94B10D83
:1017B00081E062E30E946D0680917E0190917F013D
:1017C000A0918001B09181014097A105B105D0F4AD
:1017D00080E060E00E94220A80917E0190917F016A
:1017E0000E94610980E690E00E94520980917E018A
:1017F00090917F01A0918001B09181014097A10556
:10180000B10530F380E060E00E946D0680917E01BA
:1018100090917F01A0918001B09181014397A10532
:10182000B105D0F480E060E00E94220A80917E0140
:1018300090917F010E94610980E690E00E94520928
:1018400080917E0190917F01A0918001B0918101F2
:101850004397A105B10530F382E062E30E946D0673
:1018600080917E0190917F01A0918001B0918101D2
:101870008297A105B105D0F480E060E00E94220AC1
:1018800080917E0190917F010E94610980E690E045
:101890000E94520980917E0190917F01A091800168
:1018A000B09181018297A105B10530F380E060E03D
:1018B0000E946D060E94590A0E94EA0D10927E0154
:1018C00010927F01109280011092810181E080933B
:1018D000710126960FB6F894DEBF0FBECDBFCF9133
:1018E000DF911F910F91FF90EF90089580E00E948B
:1018F000300E80917101833059F00E94340E88308F
:10190000E1F7809171018F5F8093710180E0E1CFF9
:101910008BE691E00E944A0B81E08093710182E0A6
:10192000D8CFEF92FF920F931F93DF93CF9300D006
:1019300000D000D0CDB7DEB719821092860100E04A
:1019400032E0E32EF12CEC0EFD1E10E00E94340E6E
:101950000E0D1F1DF8018083009186010F5F00931B
:101960008601053090F31092860180E08E010F5FB2
:101970001F4F90E08F5E9C4FB8010E949F06209100
:101980008601F701E20FF11D908189819817C9F452
:10199000822F8F5F80938601853058F381E00E940B
:1019A000300E81E08093720126960FB6F894DEBF68
:1019B0000FBECDBFCF91DF911F910F91FF90EF90A0
:1019C000089580E00E94300E80917201833059F0BA
:1019D0000E94340E8830E1F7809172018F5F80930E
:1019E000720180E0E1CF8BE691E00E944A0B81E03A
:1019F0008093720182E0D8CF0F931F93DF93CF9330
:101A0000CDB7DEB72B970FB6F894DEBF0FBECDBFB4
:101A10000E945D0A8FB780688FBF8E010B5F1F4FDA
:101A2000D801E4E7F1E087E001900D928150E1F701
:101A30008FE89AE00E94F20DC8010E94F70D0E9403
:101A40008B080E94340680E060E00E9400060E943D
:101A5000C30A8C838C818823D1F30E94340E8A833D
:101A60008A818823D1F38A81833079F08A81843016
:101A7000C9F08B8189838981813049F30E94340EBA
:101A80008A838A81882349F3EECF0E948F0B8B8350
:101A90008B81882371F70E948F0B8B838B81882326
:101AA000A1F3E7CF0E94910C8B838B81882309F7E8
:101AB0000E94910C8B838B818823A1F3DACF1F9234
:101AC0000F920FB60F9211242F933F934F935F9372
:101AD0006F937F938F939F93AF93BF93EF93FF93F6
:101AE000E0918701F0918801309709F00995FF9105
:101AF000EF91BF91AF919F918F917F916F915F9186
:101B00004F913F912F910F900FBE0F901F901895FE
:101B10001F920F920FB60F9211242F933F934F9362
:101B20005F936F937F938F939F93AF93BF93EF9345
:101B3000FF93E0918701F0918801309709F00995B2
:101B4000FF91EF91BF91AF919F918F917F916F9195
:101B50005F914F913F912F910F900FBE0F901F906B
:101B60001895FC014581842F837088608FBD842F78
:101B700090E09C0124703070359527953595279518
:101B8000220F331F220F331F220F331F88709070D4
:101B90009595879595958795959587958295929535
:101BA000907F9827807F9827282B8481282B2EBD13
:101BB000808191819DBD8CBD443021F089B78460C6
:101BC00089BF0895828193819BBD8ABD89B7806159
:101BD00089BF08958EB58EBD1DBC1CBC89B78B7E98
:101BE00089BF089590938801809387010895FC012F
:101BF00082E08BB988E18AB980E880BD90B58181A7
:101C0000829580739F7C892B80BD90B58081880FE1
:101C10008670997F892B80BD90B58281880F880F4F
:101C2000880F8870977F892B80BD238134814581FF
:101C30005681220F331F441F551F220F331F441F8D
:101C4000551F220F331F441F551F60E072E18AE7C2
:101C500090E00E94540E2150304030BD29B90895C3
:101C60005D9BFECF8CB908955F9BFECF8CB108952C
:101C7000FC018081882339F05D9BFECF8CB93196C1
:101C800080818823C9F70895FC015F9BFECF8CB14A
:101C90008083833239F031965F9BFECF8CB1808395
:101CA0008332C9F710820895A1E21A2EAA1BBB1B2A
:101CB000FD010DC0AA1FBB1FEE1FFF1FA217B30718
:101CC000E407F50720F0A21BB30BE40BF50B661F2E
:101CD000771F881F991F1A9469F7609570958095F2
:101CE00090959B01AC01BD01CF0108952F923F92C9
:101CF0004F925F926F927F928F929F92AF92BF921C
:101D0000CF92DF92EF92FF920F931F93CF93DF93C7
:101D1000CDB7DEB7CA1BDB0B0FB6F894DEBF0FBE24
:101D2000CDBF09942A88398848885F846E847D8471
:101D30008C849B84AA84B984C884DF80EE80FD8073
:101D40000C811B81AA81B981CE0FD11D0FB6F894E9
:101D5000DEBF0FBECDBFED010895FB019F01E894EA
:101D60004230C4F04532B4F44A3029F497FB1EF4F3
:101D7000909581959F4F642F77270E94DE0E805D9E
:101D80008A330CF0895D8193CB010097A1F716F49B
:101D90005DE251931082C9010C94CE0EDC01FC016E
:101DA000672F71917723E1F7329704C07C916D938F
:101DB00070836291AE17BF07C8F30895AA1BBB1BBF
:101DC00051E107C0AA1FBB1FA617B70710F0A61B3B
:101DD000B70B881F991F5A95A9F780959095BC015C
:081DE000CD010895F894FFCF36
:101DE80020200000000000000000000001020203A3
:101DF8000303030404040404040404050505050599
:101E08000505050505050505050505060606060675
:101E1800060606060606060606060606060606065A
:101E28000606060606060606060606070707070745
:101E3800070707070707070707070707070707072A
:101E4800070707070707070707070707070707071A
:101E5800070707070707070707070707070707070A
:101E680007070707070707070707070808080808F5
:101E780008080808080808080808080808080808DA
:101E880008080808080808080808080808080808CA
:101E980008080808080808080808080808080808BA
:101EA80008080808080808080808080808080808AA
:101EB800080808080808080808080808080808089A
:101EC800080808080808080808080808080808088A
:101ED800080808080808080808080808080808087A
:101EE800080808080808080808080800000000038F
:0C1EF80000010101030200802500000031
:00000001FF
